:100000000C9446000C945D000C945D000C945D0013
:100010000C945D000C945D000C945D000C945D00EC
:100020000C945D000C945D000C945D000C945D00DC
:100030000C945D000C945D000C945D000C945D00CC
:100040000C945D000C945D000C945D000C945D00BC
:100050000C945D000C945D000C945D000C945D00AC
:100060000C945D000C945D000C945D000C945D009C
:100070000C945D000C945D000C945D000C945D008C
:100080000C945D000C945D000C945D0011241FBE67
:10009000CFEFD0E4DEBFCDBF11E0A0E0B1E0E2E3FE
:1000A000F2E000E00BBF02C007900D92AE30B10746
:1000B000D9F70E9488000C9417010C940000CF938C
:1000C000DF9300D01F92CDB7DEB789837B836A832D
:1000D00089818A3031F48A819B81BC018DE00E9444
:1000E0005F0080EC90E0FC018081882F90E08072BE
:1000F00099270097B1F386EC90E02981FC012083D9
:1001000080E090E00F900F900F90DF91CF910895D5
:10011000CF93DF931F92CDB7DEB781E290E0FC0171
:10012000108284E290E0FC0110828AE290E02FEFDE
:10013000FC01208387E290E0FC01108282E290E0E3
:100140002FEFFC01208385E290E02FEFFC0120835C
:100150008BE290E0FC01108288E290E02FEFFC013E
:100160002083198280E290E0FC01208183E290E00C
:10017000FC018081280F86E290E0FC018081820FE3
:10018000898389818695869589838BE290E0298190
:10019000FC0120838BE290E02BE230E0F90120812A
:1001A0002C7FFC01208380E290E0FC018081282FDD
:1001B00030E083E290E0FC018081882F90E0280FFE
:1001C000391F86E290E0FC018081882F90E0820F49
:1001D000931F8D3891054CF08BE290E02BE230E0DC
:1001E000F90120812F5FFC01208380E290E0FC0177
:1001F0008081282F30E086E290E0FC018081882F0A
:1002000090E0A901481B590BCA0199231CF4919550
:1002100081959109813591054CF08BE290E02BE2BC
:1002200030E0F90120812E5FFC0120839BCFF89400
:02023000FFCFFE
:0E02320000000002000000005F00000000005D
:00000001FF
