:100000000C9446000C945D000C945D000C945D0013
:100010000C945D000C945D000C945D000C945D00EC
:100020000C945D000C945D000C945D000C945D00DC
:100030000C945D000C945D000C945D000C945D00CC
:100040000C945D000C945D000C945D000C945D00BC
:100050000C945D000C945D000C945D000C945D00AC
:100060000C945D000C945D000C945D000C945D009C
:100070000C945D000C945D000C945D000C945D008C
:100080000C945D000C945D000C945D0011241FBE67
:10009000CFEFD0E4DEBFCDBF11E0A0E0B1E0E0E003
:1000A000F2E000E00BBF02C007900D92AE30B10746
:1000B000D9F70E9488000C94FE000C940000CF93A6
:1000C000DF9300D01F92CDB7DEB789837B836A832D
:1000D00089818A3031F48A819B81BC018DE00E9444
:1000E0005F0080EC90E0FC018081882F90E08072BE
:1000F00099270097B1F386EC90E02981FC012083D9
:1001000080E090E00F900F900F90DF91CF910895D5
:10011000CF93DF9300D0CDB7DEB781E290E0FC0152
:10012000108287E290E02FEFFC01208382E290E0D2
:100130002FEFFC01208388E290E0FC0110821982FD
:10014000198280E290E0FC0180818A838A81882F75
:1001500090E081709927009719F489818F5F8983D6
:100160008A818695882F90E081709927009719F4ED
:1001700089818F5F89838A8186958695882F90E013
:1001800081709927009719F489818F5F89838A810B
:10019000869586958695882F90E08170992700979F
:1001A00019F489818F5F89838A81882F90E081701B
:1001B00099270097E9F08A818695882F90E08170D1
:1001C00099270097A9F08A8186958695882F90E0D7
:1001D00081709927009761F08A818695869586952A
:1001E000882F90E081709927009711F080E889832B
:1001F00088E290E02981FC012083A2CFF894FFCF10
:0E02000000000002000000005F00000000008F
:00000001FF
